:100000000C945E020C9400000C9400000C94000010
:100010000C9400000C9400000C9400000C94000060
:100020000C9400000C9400000C9400000C94000050
:100030000C9400000C9400000C9400000C94000040
:100040000C9400000C9400000C9400000C94000030
:040050000C9400000C
:1004BC00BFE5BDBFB4E0BEBF0E9495022F923F9234
:1004CC004F925F928FDEB1E44B2E22243324A1DFB6
:1004DC0022243324C7DF10E0103009F4013451F426
:1004EC00B0E64B2EB0E05B2EB1E03B2EB1E02B2EF4
:1004FC0032DE09C0B8E64B2EB0E05B2EB1E03B2EED
:0A050C00B1E02B2E28DEFFCFFFCF59
:1001F000B0913B00BD7FB0933B00B0913B00BE7F10
:10020000B0933B00B0913B00BF7DB0933B00B091F9
:100210003B00BF7EB0933B00B0913B00B77FB093F3
:100220003B00B0913B00BB7FB0933B00B0913A00E4
:10023000B260B0933A00B0913A00B160B0933A0026
:10024000B0913A00B460B0933A00B0913A00B8600F
:10025000B0933A00B0913A00B061B0933A00B091D7
:100260003A00B062B0933A006EDF6DDF6CDFB091A0
:100270003B00B860B0933B00B0913B00B460B093DA
:100280003B00B0913B00B260B0933B00E8DEB09120
:100290003B00BD7FB0933B0056DFB0913B00B260A6
:1002A000B0933B00DCDEB0913B00BD7FB0933B00E0
:1002B0004ADFB0913B00B260B0933B00D0DEB0911A
:1002C0003B00BD7FB0933B003EDFB0913B00BB7F66
:1002D000B0933B00B0913B00B260B0933B00BFDEF7
:1002E000B0913B00BD7FB0933B002DDFB0913B0050
:1002F000B260B0933B00B3DEB0913B00BD7FB093E2
:100300003B00B0913B00B77FB0933B00B0913B0006
:10031000B062B0933B00B0913B00B260B0933B0041
:100320009EDEB0913B00BD7FB0933B000CDFB091EF
:100330003B00BF7DB0933B00B0913B00B460B093F5
:100340003B00B0913B00B260B0933B0088DEB091BF
:100350003B00BD7FB0933B00B0913B00BB7FB093AF
:100360003B00B0913B00B260B0933B0078DEB091AF
:100370003B00BD7FB0933B00E6DEB0913B00B26036
:10038000B0933B006CDEB0913B00BD7FB0933B006F
:10039000B0913B00B460B0933B00B0913B00B260C1
:1003A000B0933B005CDEB0913B00BD7FB0933B005F
:1003B000CADEB0913B00BB7FB0933B00B0913B00E5
:1003C000B260B0933B004BDEB0913B00BD7FB09379
:1003D0003B00B0913B00B062B0933B00B0913B005A
:1003E000B061B0933B00B0913B00B860B0933B006C
:1003F000B0913B00B460B0933B00B0913B00B26061
:10040000B0933B002CDEB0913B00BD7FB0933B002E
:0E0410009ADEB0917400B160B093740008954C
:100146001AE303E20A95F1F71A95E1F700000000B9
:0201560008950A
:0C005E0002E00A95F1F700000000089590
:10041E00CF93DF93CDB7DEB72297CDBFDEBF219648
:10042E00288239820FB6BCB3B1FF01C0FCCFF8945D
:10043E001C2F2D2FE12FF22F319600810FBBE12FB4
:10044E00F22F00810EBB4DBABCB3B460BCBBBCB3C3
:10045E00B260BCBB0FBE2196CDBFDEBFDF91CF9188
:02046E000895EF
:10047000CF93DF93CDB7DEB72297CDBFDEBF2196F6
:10048000288239820FB6BCB3B1FF01C0FCCFF8940B
:100490001C2F2D2FE12FF22F319600810FBBE12F62
:1004A000F22F00810EBBBCB3B160BCBB0FBE0DB35D
:0C04B0002196CDBFDEBFDF91CF910895F3
:100162002F920FC0B0E82B2E19C0B0EC2B2E16C068
:10017200B4E92B2E13C0B4ED2B2E10C0B0E82B2EF9
:100182000DC0B1E02B1671F3B2E02B1671F3B3E0A0
:100192002B1671F3B4E02B1671F3F0CF032D01503F
:1001A200020D202E202E60DFB0917400BE7FB0932E
:1001B200740010E0E12FF0E0E40DF51D0081002352
:1001C20079F0E12FF0E0E40DF51D00811F932F92ED
:1001D200202EACDF2F901F91012F0F5F102FEACF3F
:0E01E200B0917400B160B09374002F90089536
:10006A0027FAB0913B00B5F9B0933B0026FAB0915C
:10007A003B00B4F9B0933B0025FAB0913B00B3F9C9
:10008A00B0933B0024FAB0913B00B2F9B0933B0025
:10009A00B091740000903B00E894B0FF689400F8B7
:1000AA0000923B00B0913B00B260B0933B00D2DFBC
:1000BA00B0913B00BD7FB0933B0023FAB0913B0067
:1000CA00B5F9B0933B0022FAB0913B00B4F9B09372
:1000DA003B0021FAB0913B00B3F9B0933B0020FA00
:1000EA00B0913B00B2F9B0933B00B091740000901C
:1000FA003B00E894B0FF689400F800923B00B0918E
:10010A003B00B260B0933B00A5DFB0913B00BD7FDE
:10011A00B0933B00B0917400B0FF02C00FD001C091
:04012A0094DF0895C1
:0A00540005E80A95F1F70000089591
:10012E00B0917400BE7FB093740098DFB0917400EC
:08013E00B160B0937400089554
:0A01580005900D920197E1F708955C
:10052A00A0E6B0E0E6E1F5E084E190E00E94AC00EC
:02053A00089522
:080516004120466F756E640080
:0C051E0041206E6F7420666F756E6400E3
:00000001FF
