:100000000C94C3020C9400000C9400000C940000AB
:100010000C9400000C9400000C9400000C94000060
:100020000C9400000C9400000C9400000C94000050
:100030000C9400000C9400000C9400000C94000040
:100040000C9400000C9400000C9400000C94000030
:040050000C9400000C
:10058600BFE5BDBFB4E0BEBF0E941D03CDB7DEB759
:100596002B97CDBFDEBF21962F923F924F925F924F
:1005A60001E4B1B1BE7FB1B9B1B1BD7FB1B9B0E2BD
:1005B600B0B90DDF0F93F4DD0F91502E3324442490
:1005C600B0EA2B2E0EDF33244424B0EA2B2E1ADF9A
:1005D6001C2F2D2F1F5F2F4F412E522E202EB0E0A5
:1005E6003B2E6DDF8E010F5F1F4F2801B1E03B2EC2
:0A05F600B1E02B2E1DDFFFCFFFCF79
:1001A600B0913B00BD7FB0933B00B0913B00BE7F5A
:1001B600B0933B00B0913B00BF7DB0933B00B09144
:1001C6003B00BF7EB0933B00B0913B00B77FB0933E
:1001D6003B00B0913B00BB7FB0933B00B0913A002F
:1001E600B260B0933A00B0913A00B160B0933A0071
:1001F600B0913A00B460B0933A00B0913A00B8605A
:10020600B0933A00B0913A00B061B0933A00B09121
:100216003A00B062B0933A00ADDFACDFABDFB0912D
:100226003B00B860B0933B00B0913B00B460B09324
:100236003B00B0913B00B260B0933B0095DFB091BC
:100246003B00BD7FB0933B0095DFB0913B00B260B1
:10025600B0933B0089DFB0913B00BD7FB0933B007C
:1002660089DFB0913B00B260B0933B007DDFB09177
:100276003B00BD7FB0933B007DDFB0913B00BB7F71
:10028600B0933B00B0913B00B260B0933B006CDF93
:10029600B0913B00BD7FB0933B006CDFB0913B005B
:1002A600B260B0933B0060DFB0913B00BD7FB0937E
:1002B6003B00B0913B00B77FB0933B00B0913B0051
:1002C600B062B0933B00B0913B00B260B0933B008C
:1002D6004BDFB0913B00BD7FB0933B004BDFB0914D
:1002E6003B00BF7DB0933B00B0913B00B460B09340
:1002F6003B00B0913B00B260B0933B0035DFB0915C
:100306003B00BD7FB0933B00B0913B00BB7FB093F9
:100316003B00B0913B00B260B0933B0025DFB0914B
:100326003B00BD7FB0933B0025DFB0913B00B26040
:10033600B0933B0019DFB0913B00BD7FB0933B000B
:10034600B0913B00B460B0933B00B0913B00B2600B
:10035600B0933B0009DFB0913B00BD7FB0933B00FB
:1003660009DFB0913B00BB7FB0933B00B0913B00EF
:10037600B260B0933B00F8DEB0913B00BD7FB09316
:100386003B00B0913B00B062B0933B00B0913B00A4
:10039600B061B0933B00B0913B00B860B0933B00B6
:1003A600B0913B00B460B0933B00B0913B00B260AB
:1003B600B0933B00D9DEB0913B00BD7FB0933B00CC
:0E03C600D9DEB0918900B160B093890008952E
:10017A001AE303E20A95F1F71A95E1F70000000085
:02018A000895D6
:0C016E0002E00A95F1F70000000008957F
:1003E8002F92D0DE022D0E7F202E3BDE042D10E052
:1003F800202E37DE232C35DE252C33DE2FDE2F9002
:02040800089555
:10018C00B4EAB6BFB6B7B7FD01C0FCCF62DF08302A
:0A019C00B0E009F0B1E00B2F089568
:06005E0001B1087F0895C6
:10006A0023B8B4E8B6BFB6B7B7FD01C0FCCF089550
:00007A0086
:06006400B4E9B6BF0895E7
:10040A002F92BFDEB0EA2B2E2BDE042D10E0202E19
:10041A0027DE232C25DEB5DEB1EA2B2E21DE2224AF
:0C042A0095DE102F1ADE012F2F90089590
:10015600B4E8B6BF20FAB6B7B6F9B6BFB6B7B7FDBC
:0801660001C0FCCF03B10895B4
:1004C400CF93DF93CDB7DEB72297CDBFDEBF2196A2
:1004D400288239828E01F80131960081202F2695D9
:1004E40026952695269509E216E0E22FF0E0E00F26
:1004F400F11F0491F2010083342D452D3F5F4F4FCE
:100504008E01F80131960081202F2F7009E216E048
:10051400E22FF0E0E00FF11F0491E32FF42F0083AA
:10052400342D452D3E5F4F4FFE010081202F26952F
:1005340026952695269509E216E0E22FF0E0E00FD5
:10054400F11F0491E32FF42F0083342D452D3D5FDB
:100554004F4FFE010081202F2F7009E216E0E22F99
:10056400F0E0E00FF11F0491E32FF42F0083F20178
:100574003496B0E0B0832196CDBFDEBFDF91CF913A
:020584000895D8
:100436002F920FC0B0E82B2E19C0B0EC2B2E16C091
:10044600B4E92B2E13C0B4ED2B2E10C0B0E82B2E22
:100456000DC0B1E02B1671F3B2E02B1671F3B3E0C9
:100466002B1671F3B4E02B1671F3F0CF032D015068
:10047600020D202E202E0ADEB0918900BE7FB09399
:10048600890010E0E12FF0E0E40DF51D0081002366
:1004960079F0E12FF0E0E40DF51D00811F932F9216
:1004A600202EE8DD2F901F91012F0F5F102FEACF2E
:0E04B600B0918900B160B09389002F90089535
:1000920027FAB0913B00B5F9B0933B0026FAB09134
:1000A2003B00B4F9B0933B0025FAB0913B00B3F9A1
:1000B200B0933B0024FAB0913B00B2F9B0933B00FD
:1000C200B091890000903B00E894B0FF689400F87A
:1000D20000923B00B0913B00B260B0933B0046D02F
:1000E200B0913B00BD7FB0933B0023FAB0913B003F
:1000F200B5F9B0933B0022FAB0913B00B4F9B0934A
:100102003B0021FAB0913B00B3F9B0933B0020FAD7
:10011200B0913B00B2F9B0933B00B09189000090DE
:100122003B00E894B0FF689400F800923B00B09165
:100132003B00B260B0933B0019D0B0913B00BD7F51
:10014200B0933B00B0918900B0FF02C015D001C04E
:0401520080DF0895AD
:0A00540005E80A95F1F70000089591
:10007A00B0918900BE7FB093890006D0B091890003
:08008A00B160B09389000895F4
:0A03DE0005900D920197E1F70895D4
:0A03D400B0E3B1B9B4E0B6BF08957C
:10063A00A0E6B0E0E0E0F6E089E290E00E94EF0197
:02064A00089511
:10062900303132333435363738394142434445461F
:100600005375636365737366756C6C792077726973
:050610007474656E002A
:10061500446174612077726974696E6720666169E7
:040625006C6564009C
:00000001FF
