:100000000C9460020C9400000C9400000C9400000E
:100010000C9400000C9400000C9400000C94000060
:100020000C9400000C9400000C9400000C94000050
:100030000C9400000C9400000C9400000C94000040
:100040000C9400000C9400000C9400000C94000030
:040050000C9400000C
:1004C000BFE5BDBFB4E0BEBF0E94AD022F923F9218
:1004D0004F925F92DEDEB5E64B2EB0E05B2EB1E0D0
:1004E0003B2EB1E02B2E8EDE29E216E900E80A95BC
:1004F000F1F71A95E1F72A95D1F7B0E62B2EB0E087
:100500003B2E2ADE29E216E900E80A95F1F71A9552
:10051000E1F72A95D1F7B1E02B2EA1DDB1E44B2E06
:10052000B1E03B2EB1E02B2E31DE29E216E900E8E6
:100530000A95F1F71A95E1F72A95D1F7B2E42B2E37
:06054000F0DDFFCFFFCF4C
:10029200B0913B00BD7FB0933B00B0913B00BE7F6D
:1002A200B0933B00B0913B00BF7DB0933B00B09157
:1002B2003B00BF7EB0933B00B0913B00B77FB09351
:1002C2003B00B0913B00BB7FB0933B00B0913A0042
:1002D200B260B0933A00B0913A00B160B0933A0084
:1002E200B0913A00B460B0933A00B0913A00B8606D
:1002F200B0933A00B0913A00B061B0933A00B09135
:100302003A00B062B0933A001DDF1CDF1BDFB091F0
:100312003B00B860B0933B00B0913B00B460B09337
:100322003B00B0913B00B260B0933B0005DFB0915F
:100332003B00BD7FB0933B0005DFB0913B00B26054
:10034200B0933B00F9DEB0913B00BD7FB0933B0020
:10035200F9DEB0913B00B260B0933B00EDDEB091AC
:100362003B00BD7FB0933B00EDDEB0913B00BB7F15
:10037200B0933B00B0913B00B260B0933B00DCDE37
:10038200B0913B00BD7FB0933B00DCDEB0913B00FF
:10039200B260B0933B00D0DEB0913B00BD7FB09322
:1003A2003B00B0913B00B77FB0933B00B0913B0064
:1003B200B062B0933B00B0913B00B260B0933B009F
:1003C200BBDEB0913B00BD7FB0933B00BBDEB09182
:1003D2003B00BF7DB0933B00B0913B00B460B09353
:1003E2003B00B0913B00B260B0933B00A5DEB09100
:1003F2003B00BD7FB0933B00B0913B00BB7FB0930D
:100402003B00B0913B00B260B0933B0095DEB091EF
:100412003B00BD7FB0933B0095DEB0913B00B260E4
:10042200B0933B0089DEB0913B00BD7FB0933B00AF
:10043200B0913B00B460B0933B00B0913B00B2601E
:10044200B0933B0079DEB0913B00BD7FB0933B009F
:1004520079DEB0913B00BB7FB0933B00B0913B0093
:10046200B260B0933B0068DEB0913B00BD7FB093B9
:100472003B00B0913B00B062B0933B00B0913B00B7
:10048200B061B0933B00B0913B00B860B0933B00C9
:10049200B0913B00B460B0933B00B0913B00B260BE
:1004A200B0933B0049DEB0913B00BD7FB0933B006F
:0E04B20049DEB0917400B160B09374000895FB
:100146001AE303E20A95F1F71A95E1F700000000B9
:0201560008950A
:0C013A0002E00A95F1F7000000000895B3
:100204002F920FC0B0E82B2E19C0B0EC2B2E16C0C5
:10021400B4E92B2E13C0B4ED2B2E10C0B0E82B2E56
:100224000DC0B1E02B1671F3B2E02B1671F3B3E0FD
:100234002B1671F3B4E02B1671F3F0CF032D01509C
:10024400020D202E202E09DFB0917400BE7FB093E2
:10025400740010E0E12FF0E0E40DF51D00810023AF
:1002640079F0E12FF0E0E40DF51D00811F932F924A
:10027400202E55DF2F901F91012F0F5F102FEACFF3
:0E028400B0917400B160B09374002F90089593
:10005E0027FAB0913B00B5F9B0933B0026FAB09168
:10006E003B00B4F9B0933B0025FAB0913B00B3F9D5
:10007E00B0933B0024FAB0913B00B2F9B0933B0031
:10008E00B091740000903B00E894B0FF689400F8C3
:10009E0000923B00B0913B00B260B0933B0046D063
:1000AE00B0913B00BD7FB0933B0023FAB0913B0073
:1000BE00B5F9B0933B0022FAB0913B00B4F9B0937E
:1000CE003B0021FAB0913B00B3F9B0933B0020FA0C
:1000DE00B0913B00B2F9B0933B00B0917400009028
:1000EE003B00E894B0FF689400F800923B00B0919A
:1000FE003B00B260B0933B0019D0B0913B00BD7F86
:10010E00B0933B00B0917400B0FF02C015D001C097
:04011E009ADF0895C7
:0A00540005E80A95F1F70000089591
:10012200B0917400BE7FB093740098DFB0917400F8
:08013200B160B0937400089560
:1001580010E0E12FF0E0E20DF31D0081002389F0AB
:10016800E12FF0E0E20DF31D00811F933F922F92E3
:10017800202ED3DF2F903F901F91012F0F5F102F5C
:04018800E8CF08951F
:10018C002F920FC0B0E82B2E19C0B0EC2B2E16C03E
:10019C00B4E92B2E13C0B4ED2B2E10C0B0E82B2ECF
:1001AC000DC0B1E02B1671F3B2E02B1671F3B3E076
:1001BC002B1671F3B4E02B1671F3F0CF032D015015
:1001CC00020D202EB0917400B160B0937400202EFB
:1001DC0040DFB0917400BE7FB0937400242C39DFE3
:0E01EC00B0917400B160B09374002F9008952C
:0A01FA0005900D920197E1F70895BA
:10055A00A0E6B0E0E6E4F5E084E190E00E94FD0068
:02056A000895F2
:0505460020212121002D
:0F054B004A6F6E74726F706174692E636F6D000A
:00000001FF
