:100000000C942F000C9400000C9400000C94000041
:100010000C9400000C9400000C9400000C94000060
:100020000C9400000C9400000C9400000C94000050
:100030000C9400000C9400000C9400000C94000040
:100040000C9400000C9400000C9400000C94000030
:040050000C9400000C
:10005E00BFE5BDBFB4E0BEBFCDB7DEB72A97CDBFFB
:10006E00DEBF2196E0EEF0E0DE01129688E090E031
:10007E00EADFBFEFB1BBBFEFB4BBB0E0B883B9836B
:10008E002881398108E010E02017310704F59E0120
:10009E002E5F3F4F08811981F801E20FF31F008197
:1000AE0005BBB88101E0BB2319F0000FBA95E9F743
:1000BE00009502BB18E605EE0A95F1F71A95E1F7E1
:1000CE00088119810F5F1F4F08831983D9CFD5CFB0
:0200DE00FFCF52
:0A00540005900D920197E1F7089561
:0800E00018183C6E66C3C3C38F
:00000001FF
