:100000000C942F000C9400000C9400000C94000041
:100010000C9400000C9400000C9400000C94000060
:100020000C9400000C9400000C9400000C94000050
:100030000C9400000C9400000C9400000C94000040
:100040000C9400000C9400000C9400000C94000030
:040050000C9400000C
:10005E00BFE5BDBFB4E0BEBFCDB7DEB72197CDBF04
:10006E00DEBF2196BFEFB4BBB0E0B5BBBFE0B1BB06
:10007E00B0E0B2BBB0E0B88308810430A8F40881C8
:10008E0005BBB88101E0BB2319F0000FBA95E9F763
:10009E0002BB10ED0AEC0A95F1F71A95E1F7000094
:0C00AE0008810F5F0883E8CFE5CFFFCF8B
:0A00540005900D920197E1F7089561
:00000001FF
