:100000000C9443000C942F000C9400000C940000FE
:100010000C9400000C9400000C9400000C94000060
:100020000C9400000C9400000C9400000C94000050
:100030000C9400000C9400000C9400000C94000040
:100040000C9400000C9400000C9400000C94000030
:040050000C9400000C
:10008600BFE5BDBFB4E0BEBF04B3016004BBB2B3FD
:10009600B460B2BBB5B7B460B5BF0BB700640BBFF5
:0A00A6000FB700680FBFFFCFFFCFB8
:0A00540005900D920197E1F7089561
:10005E000F92EF93FF93BF93BFB7BF9305B2B1E07B
:10006E000B2605BABAB7B064BABFBF91BFBFBF9176
:08007E00FF91EF910F9018951E
:00000001FF
