:100000000C942F000C9400000C9400000C94000041
:100010000C9400000C9400000C9400000C94000060
:100020000C9400000C9400000C9400000C94000050
:100030000C9400000C9400000C9400000C94000040
:100040000C9400000C9400000C9400000C94000030
:040050000C9400000C
:10005E00BFE5BDBFB4E0BEBFB0E0B7BBBFEFB8BB3E
:10006E00BFEFBABBB0E0BBBBB6B3B0FD10C022E071
:10007E0014ED06E80A95F1F71A95E1F72A95D1F7EE
:10008E000BB300950BBBB6B3B0FD01C0FCCFECCFEC
:02009E00FFCF92
:0A00540005900D920197E1F7089561
:00000001FF
