:100000000C942F000C9400000C9400000C94000041
:100010000C9400000C9400000C9400000C94000060
:100020000C9400000C9400000C9400000C94000050
:100030000C9400000C9400000C9400000C94000040
:100040000C9400000C9400000C9400000C94000030
:040050000C9400000C
:10005E00BFE5BDBFB4E0BEBFBFEFB7BBB0E0B8BB3E
:10006E00BFEFB8BB25E11BE40FEB0A95F1F71A952C
:10007E00E1F72A95D1F70000B0E0B8BB25E11BE40B
:10008E000FEB0A95F1F71A95E1F72A95D1F70000D3
:10009E0025E11BE40FEB0A95F1F71A95E1F72A9586
:0800AE00D1F70000DDCFFFCF08
:0A00540005900D920197E1F7089561
:00000001FF
