:100000000C942F000C9400000C9400000C94000041
:100010000C9400000C9400000C9400000C94000060
:100020000C9400000C9400000C9400000C94000050
:100030000C9400000C9400000C9400000C94000040
:100040000C9400000C9400000C9400000C94000030
:040050000C9400000C
:10005E00BFE5BDBFB4E0BEBFB7B3B260B7BBB8B308
:10006E00BD7FB8BB08B2B2E00B2608BA25E11BE48F
:10007E000FEB0A95F1F71A95E1F72A95D1F70000E3
:04008E00F1CFFFCFE0
:0A00540005900D920197E1F7089561
:00000001FF
