:100000000C9476000C9400000C9400000C940000FA
:100010000C9400000C9400000C9400000C94000060
:100020000C9400000C9400000C9400000C94000050
:100030000C9400000C9400000C9400000C94000040
:100040000C9400000C9400000C9400000C94000030
:040050000C9400000C
:1000EC00BFE5BDBFB4E0BEBF0E949C002F923F9203
:1000FC00B3E3B9B9B0E0B0BDB8DFB0E62B2EB0E0D9
:10010C003B2ED7DF29E216E900E80A95F1F71A959C
:0A011C00E1F72A95D1F7F1CFFFCFEC
:1000BE0010E0F1010081202F022F003079F03F92E5
:1000CE002F92202EC0DF2F903F90012F0F5F102F09
:0E00DE00E02FF0E0E20DF31D0081EFCF08955A
:10005400BBB1B5FD01C0FCCFBBB1B6FF03C0BBB1A2
:08006400B064BBB92CB808958B
:0A006C0005900D920197E1F7089549
:10007600BAE2B0937300B0E0B0937400BFEFB093F0
:100086007100BFEFB0937200BFEFB0937700BFEF80
:10009600B0937800BFEFB0937500BFEFB0937600D2
:1000A600B1B3BE7FB1BBB1B3B260B1BB0AB1086137
:0800B6000AB9B6E8B0BD0895D7
:10013800A0E6B0E0E6E2F1E081E190E00E9436005E
:02014800089518
:100126004A6F6E74726F706174692E636F6D0D0A1B
:0101360000C8
:00000001FF
