:100000000C94E2000C9400000C9400000C9400008E
:100010000C9400000C9400000C9400000C94000060
:100020000C9400000C9400000C9400000C94000050
:100030000C9400000C9400000C9400000C94000040
:100040000C9400000C9400000C9400000C94000030
:040050000C9400000C
:1001C400BFE5BDBFB4E0BEBF0E948601CDB7DEB7B8
:1001D4002A97CDBFDEBF21962F923F924F925F9216
:1001E4006F9204B3016004BBB5B3BE7FB5BBB3E388
:1001F400B9B9B0E0B0BD3ADFBAE92B2EB0E03B2E7E
:100204007DDFBAE82B2EB0E03B2E78DFBFEB2B2E40
:10021400B0E03B2E73DFB4EA2B2EB0E03B2E6EDF52
:1002240084DF002309F436C08E01B6E06B2EB7E7F5
:100234004B2EB0E05B2E18017DDF8E01BAE74B2E0A
:10024400B0E05B2E180136DF103009F4003049F4B9
:10025400B5B3B160B5BBBEE62B2EB0E03B2E4EDF8E
:1002640019C08E01B0E64B2EB0E05B2E180122DFE0
:10027400103009F4003049F4B5B3BE7FB5BBB4E621
:100284002B2EB0E03B2E3ADF05C0BDE72B2EB0E0AD
:080294003B2E34DFC5CFFFCF84
:1001000010E0F1010081202F022F003079F03F92A2
:100110002F92202E9FDF2F903F90012F0F5F102FE7
:0E012000E02FF0E0E20DF31D0081EFCF089517
:10005400BBB1B5FD01C0FCCFBBB1B6FF03C0BBB1A2
:08006400B064BBB92CB808958B
:0A012E000BB0002707FC03950895AD
:1001380020E000E0302F662009F43CC0BFEF6B16CA
:1001480019F0062D0150602EEEDF003009F4FCCFC7
:1001580089DF102FE22FF0E0E20DF31D0083022F5C
:100168000F5F202FE32FF0E0E40DF51D008101174C
:1001780021F4032F0F5F302F0AC030E0F201008115
:10018800011729F4032F0F5F102F312F00C0E32F21
:10019800F0E0E40DF51D0081003059F4022F10E065
:1001A800031BB0E01B0BF801E20DF31DB0E0B083B8
:0C01B80004C0C1CFF101B0E0B083089595
:04006C000CB1089536
:1000B800F1010081002379F0F1011081F201008142
:1000C800101749F481010F5F1F4F180182010F5F5C
:1000D8001F4F2801EDCFF1011081F2010081002EA0
:0E00E800B0E01B2E012F10E000191109089541
:0A00F60005900D920197E1F70895BF
:10007000BAE2B093D600B0E0B093D700B6E3B09345
:10008000D400B0E0B093D500B7E9B093D000B0E0B1
:10009000B093D100BFEFB093D200BFEFB093D300C5
:1000A000B1B3BE7FB1BBB1B3B260B1BB0AB108613D
:0800B0000AB9B6E8B0BD0895DD
:10030C00A0E6B0E0ECE9F2E080E790E00E947B0030
:02031C00089542
:04029C004F46460083
:0A02A0004C4544204F46460D0A006D
:0902AA004C4544204F4E0D0A00A2
:0302B30058580098
:0302B6004F4E00A8
:0D02B90057726F6E6720636F64650D0A0059
:1002C6004C4544206F6E203A204F4E58580D0A0078
:0A02D6005573616765733A0D0A0065
:1002E000456E74657220796F757220636F6D6D61F4
:0B02F0006E642062656C6F770D0A00E1
:1002FB004C4544206F66663A204F464658580D0AC7
:01030B0000F1
:00000001FF
