:100000000C942F000C9400000C9400000C94000041
:100010000C9400000C9400000C9400000C94000060
:100020000C9400000C9400000C9400000C94000050
:100030000C9400000C9400000C9400000C94000040
:100040000C9400000C9400000C9400000C94000030
:040050000C9400000C
:10005E00BFE5BDBFB4E0BEBFCDB7DEB72197CDBF04
:10006E00DEBF2196BFEFB4BBB0E0B5BBB0E0B88346
:10007E0008810A3080F4088105BB25E11BE40FEBF3
:10008E000A95F1F71A95E1F72A95D1F70000088144
:0A009E000F5F0883EDCFEACFFFCF1C
:0A00540005900D920197E1F7089561
:00000001FF
