:100000000C949A020C9400000C9400000C940000D4
:100010000C9400000C9400000C9400000C94000060
:100020000C9400000C9400000C9400000C94000050
:100030000C9400000C9400000C9400000C94000040
:100040000C9400000C9400000C9400000C94000030
:040050000C9400000C
:10053400BFE5BDBFB4E0BEBF0E94DC02CDB7DEB7ED
:100544002297CDBFDEBF21962F923F924F925F92AA
:10055400B2EDB883B4E0B98398DE388049802224B0
:10056400ABDF2224C1DF288139810217130751F43C
:10057400B0E64B2EB0E05B2EB1E03B2EB1E02B2E6B
:100584003DDE09C0BCE64B2EB0E05B2EB1E03B2E55
:0A059400B1E02B2E33DEFFCFFFCFC6
:10028E00B0913B00BD7FB0933B00B0913B00BE7F71
:10029E00B0933B00B0913B00BF7DB0933B00B0915B
:1002AE003B00BF7EB0933B00B0913B00B77FB09355
:1002BE003B00B0913B00BB7FB0933B00B0913A0046
:1002CE00B260B0933A00B0913A00B160B0933A0088
:1002DE00B0913A00B460B0933A00B0913A00B86071
:1002EE00B0933A00B0913A00B061B0933A00B09139
:1002FE003A00B062B0933A0068DF67DF66DFB09114
:10030E003B00B860B0933B00B0913B00B460B0933B
:10031E003B00B0913B00B260B0933B005FDFB09109
:10032E003B00BD7FB0933B0050DFB0913B00B2600D
:10033E00B0933B0053DFB0913B00BD7FB0933B00C9
:10034E0044DFB0913B00B260B0933B0047DFB09109
:10035E003B00BD7FB0933B0038DFB0913B00BB7FCD
:10036E00B0933B00B0913B00B260B0933B0036DFE0
:10037E00B0913B00BD7FB0933B0027DFB0913B00B7
:10038E00B260B0933B002ADFB0913B00BD7FB093CB
:10039E003B00B0913B00B77FB0933B00B0913B0068
:1003AE00B062B0933B00B0913B00B260B0933B00A3
:1003BE0015DFB0913B00BD7FB0933B0006DFB091DF
:1003CE003B00BF7DB0933B00B0913B00B460B09357
:1003DE003B00B0913B00B260B0933B00FFDEB091AA
:1003EE003B00BD7FB0933B00B0913B00BB7FB09311
:1003FE003B00B0913B00B260B0933B00EFDEB0919A
:10040E003B00BD7FB0933B00E0DEB0913B00B2609D
:10041E00B0933B00E3DEB0913B00BD7FB0933B0059
:10042E00B0913B00B460B0933B00B0913B00B26022
:10043E00B0933B00D3DEB0913B00BD7FB0933B0049
:10044E00C4DEB0913B00BB7FB0933B00B0913B004C
:10045E00B260B0933B00C2DEB0913B00BD7FB09363
:10046E003B00B0913B00B062B0933B00B0913B00BB
:10047E00B061B0933B00B0913B00B860B0933B00CD
:10048E00B0913B00B460B0933B00B0913B00B260C2
:10049E00B0933B00A3DEB0913B00BD7FB0933B0019
:0E04AE0094DEB0917900B160B09379000895AA
:1001D8001AE303E20A95F1F71A95E1F70000000027
:0201E800089578
:0C01EA0002E00A95F1F700000000089503
:1004BC002F923F924F92042D10E04F923F92402E7C
:1004CC00B0E03B2EC6DD3F904F90022D10E00F5F49
:1004DC001F4F432C1801BDDD4F903F902F90089576
:0004EC0010
:10005E00CF93DF93CDB7DEB72297CDBFDEBF21960C
:10006E00288239820FB6BCB3B1FF01C0FCCFF89421
:10007E001C2F2D2FE12FF22F319600810FBBE12F78
:10008E00F22F00810EBB4DBABCB3B460BCBBBCB387
:10009E00B260BCBB0FBE2196CDBFDEBFDF91CF914C
:0200AE000895B3
:1004EC00CF93DF93CDB7DEB72297CDBFDEBF21967A
:1004FC002F923F92B0E03B2ED5DD102F00270883C2
:10050C001983022D10E00F5F1F4F1801CBDD2881DE
:10051C00398110E0022B132B3F902F902196CDBFE9
:08052C00DEBFDF91CF910895BD
:1000B000CF93DF93CDB7DEB72297CDBFDEBF2196BA
:1000C000288239820FB6BCB3B1FF01C0FCCFF894CF
:1000D0001C2F2D2FE12FF22F319600810FBBE12F26
:1000E000F22F00810EBBBCB3B160BCBB0FBE0DB321
:0C00F0002196CDBFDEBFDF91CF910895B7
:100200002F920FC0B0E82B2E19C0B0EC2B2E16C0C9
:10021000B4E92B2E13C0B4ED2B2E10C0B0E82B2E5A
:100220000DC0B1E02B1671F3B2E02B1671F3B3E001
:100230002B1671F3B4E02B1671F3F0CF032D0150A0
:10024000020D202E202E5ADFB0917900BE7FB09390
:10025000790010E0E12FF0E0E40DF51D00810023AE
:1002600079F0E12FF0E0E40DF51D00811F932F924E
:10027000202EA6DF2F901F91012F0F5F102FEACFA6
:0E028000B0917900B160B09379002F9008958D
:1000FC0027FAB0913B00B5F9B0933B0026FAB091CA
:10010C003B00B4F9B0933B0025FAB0913B00B3F936
:10011C00B0933B0024FAB0913B00B2F9B0933B0092
:10012C00B091790000903B00E894B0FF689400F81F
:10013C0000923B00B0913B00B260B0933B004FD0BB
:10014C00B0913B00BD7FB0933B0023FAB0913B00D4
:10015C00B5F9B0933B0022FAB0913B00B4F9B093DF
:10016C003B0021FAB0913B00B3F9B0933B0020FA6D
:10017C00B0913B00B2F9B0933B00B0917900009084
:10018C003B00E894B0FF689400F800923B00B091FB
:10019C003B00B260B0933B0022D0B0913B00BD7FDE
:1001AC00B0933B00B0917900B0FF02C00FD001C0FA
:0401BC004BDF089578
:0A00540005E80A95F1F70000089591
:1001C000B0917900BE7FB093790098DFB09179004B
:0801D000B160B09379000895BD
:0A01F60005900D920197E1F70895BE
:1005B800A0E6B0E0EEE9F5E089E190E00E94FB00FA
:0205C800089594
:0C059E004D6174636820466F756E640048
:0D05AA004D61746368206661696C656400D2
:00000001FF
