:100000000C942F000C9400000C9400000C94000041
:100010000C9400000C9400000C9400000C94000060
:100020000C9400000C9400000C9400000C94000050
:100030000C9400000C9400000C9400000C94000040
:100040000C9400000C9400000C9400000C94000030
:040050000C9400000C
:10005E00BFE5BDBFB4E0BEBFCDB7DEB72197CDBF04
:10006E00DEBF2196BFEFB4BBB0E0B5BBBFE0B1BB06
:10007E00B0E0B2BBB0E0B88308810430E0F418EC15
:10008E0020E00881E02FF0E0E10FF21F049105BBA4
:10009E00B88101E0BB2319F0000FBA95E9F702BB56
:1000AE0010ED0AEC0A95F1F71A95E1F700000881B8
:0A00BE000F5F0883E1CFDECFFFCF14
:0A00540005900D920197E1F7089561
:0A00C8003F065B4F666D7D077F6FFA
:00000001FF
